:100000000C942C020C9449020C9449020C94490261
:100010000C9449020C9449020C9449020C94490234
:100020000C9449020C9449020C9449020C94490224
:100030000C9449020C9449020C9449020C94490214
:100040000C9449020C944902C05060B09000A0D0BA
:1000500030E0F08040701020F0B1B4E5E1A0E4F1B0
:10006000A5F4F5E0B0B5A1A47233366763226673D8
:10007000277677623237232678393C6D69286C7988
:100080002D7C7D68383D292CDA9B9ECFCB8ACEDB38
:100090008FDEDFCA9A9F8B8ED29396C7C382C6D358
:1000A00087D6D7C292978386501114454100445198
:1000B0000554554010150104D8999CCDC988CCD958
:1000C0008DDCDDC8989D898CF2B3B6E7E3A2E6F338
:1000D000A7F6F7E2B2B7A3A65A1B1E4F4B0A4E5B18
:1000E0000F5E5F4A1A1F0B0EF8B9BCEDE9A8ECF9D8
:1000F000ADFCFDE8B8BDA9ACFABBBEEFEBAAEEFBC8
:10010000AFFEFFEABABFABAED09194C5C180C4D1F7
:1001100085D4D5C090958184703134656120647137
:1001200025747560303521247A3B3E6F6B2A6E7BD7
:100130002F7E7F6A3A3F2B2E5213164743024653B7
:10014000075657421217030658191C4D49084C59B7
:100150000D5C5D48181D090C3C6C2D797828397CA4
:10016000693D7D382C6D68299CCC8DD9D88899DC67
:10017000C99DDD988CCDC8891E4E0F5B5A0A1B5E47
:100180004B1F5F1A0E4F4A0BB6E6A7F3F2A2B3F667
:10019000E3B7F7B2A6E7E2A3B4E4A5F1F0A0B1F4A7
:1001A000E1B5F5B0A4E5E0A11444055150001154A7
:1001B0004115551004454001366627737222337687
:1001C0006337773226676223BCECADF9F8A8B9FC37
:1001D000E9BDFDB8ACEDE8A996C687D3D28293D627
:1001E000C397D79286C7C2833E6E2F7B7A2A3B7E07
:1001F0006B3F7F3A2E6F6A2BBEEEAFFBFAAABBFEB7
:10020000EBBFFFBAAEEFEAAB3464257170203174F6
:1002100061357530246560211C4C0D595808195CF6
:10022000491D5D180C4D48099ECE8FDBDA8A9BDE96
:10023000CB9FDF9A8ECFCA8B94C485D1D08091D4C6
:10024000C195D59084C5C0811646075352021356F6
:1002500043175712064742030F1B4B5E1E0A4E1FE1
:100260005A4F5F0E0B5B1A4A273363763622663786
:1002700072677726237332628793C3D69682C697B6
:10028000D2C7D78683D392C2ADB9E9FCBCA8ECBD76
:10029000F8EDFDACA9F9B8E82D39697C3C286C3D36
:1002A000786D7D2C29793868051141541400441566
:1002B00050455504015110408D99C9DC9C88CC9D56
:1002C000D8CDDD8C89D998C82F3B6B7E3E2A6E3FF6
:1002D0007A6F7F2E2B7B3A6AA5B1E1F4B4A0E4B526
:1002E000F0E5F5A4A1F1B0E08F9BCBDE9E8ACE9F16
:1002F000DACFDF8E8BDB9ACAAFBBEBFEBEAAEEBFB6
:10030000FAEFFFAEABFBBAEA0D19495C1C084C1DB5
:10031000584D5D0C095918480713435616024617E5
:100320005247570603531242A7B3E3F6B6A2E6B705
:10033000F2E7F7A6A3F3B2E2253161743420643505
:1003400070657524217130608591C1D49480C49505
:10035000D0C5D58481D190C0C3C6D297878293C7B8
:1003600096D3D783C2D68692C9CCD89D8D8899CD95
:100370009CD9DD89C8DC8C98E1E4F0B5A5A0B1E595
:10038000B4F1F5A1E0F4A4B06B6E7A3F2F2A3B6F75
:100390003E7B7F2B6A7E2E3A4B4E5A1F0F0A1B4F15
:1003A0001E5B5F0B4A5E0E1A414450150500114555
:1003B0001451550140540410636672372722336785
:1003C0003673772362762632CBCEDA9F8F8A9BCF25
:1003D0009EDBDF8BCADE8E9A696C783D2D28396DE5
:1003E0003C797D29687C2C38E3E6F2B7A7A2B3E715
:1003F000B6F3F7A3E2F6A6B2EBEEFABFAFAABBEFF5
:10040000BEFBFFABEAFEAEBA4346521707021347E4
:100410001653570342560612C1C4D095858091C524
:1004200094D1D581C0D48490E9ECF8BDADA8B9EDE4
:10043000BCF9FDA9E8FCACB8494C581D0D08194D94
:100440001C595D09485C0C186164703525203165C4
:10045000347175216074243011241FBECFE5D4E0BF
:10046000DEBFCDBF10E0A0E6B0E0E2E3F5E102C000
:1004700005900D92A037B107D9F711E0A0E7B0E0E1
:1004800001C01D92A132B107E1F70E944B020C940A
:10049000970A0C9400000F931F938AEC90E09093BE
:1004A000C7008093C60020EA30E03093C900209353
:1004B000C8000E9493038091C8009091C9000E94D7
:1004C0009C030E94490402E017E68091C6009091C7
:1004D000C7000E947604E091C800F091C900813005
:1004E00059F08091CA0080838091CB008183028380
:1004F00015821383148207C08091C6009091C700B3
:10050000BF010E94A1028091C8009091C9000E9481
:10051000BE038091C6009091C7000E949303809112
:10052000C8009091C9000E949C03CFCFFC01878135
:10053000861729F48085841711F481E008958FEFE0
:100540000895FC01DB0180818C93818111968C934D
:1005500011978181813C71F480818C9381EE119699
:100560008C93119781E012968C9312978381169643
:100570008C9308958381803809F045C0848180354B
:1005800001F1813528F4803441F08234C1F50FC087
:10059000823509F1803699F528C087818031B9F517
:1005A00080858031A1F5CF010E94E1050895878102
:1005B000803169F58085803151F5CF010E94BA05FF
:1005C00008958781803119F58085803101F5CF014B
:1005D0000E949305089587818031C9F48085803118
:1005E000B1F4CF010E946C0508958781883079F4B9
:1005F0008085883061F4CF010E9443050895CD01C4
:100600000E94AE030895CB010E94A6030895CD0178
:100610000E94B603089565E16A95F1F7089569E7C8
:10062000FBCF7F936F935F934F9361E060931001D3
:10063000BE98C698B699FECFB699FCCF8827992761
:100640006FE1EADF22D0000059E0442762E40000B5
:100650000000E2DF1AD0470F889470FD0894879558
:1006600061E45A95B1F7881F40FD08C06CE4D4DFFF
:1006700099274F915F916F917F9108956CE4CCDF42
:10068000BE9AC69866EBC8DFD3CF77278894B69911
:100690000894791FC0DF8894B6990894791FBBDF4E
:1006A0008894B6990894791F769508956F937F93EF
:1006B00060911001662329F0B2DFB1DF60E0609342
:1006C0001001C69ABE9AC69867E7A6DF98E077271A
:1006D000879510F0C69802C0C69A739566E79CDFAE
:1006E00000009A95A9F770FD04C000000000C698AC
:1006F00004C00000C69A0000000060E78DDFC69AC3
:1007000067E78ADFBE98C6988894B699089430F057
:100710008795B699FECF6AE37FDFD3CF64E77CDFAE
:100720007F916F910895FC011082118212821086D0
:100730001782138214820895FC011082118282E0D4
:100740008283158284E6838314820895FC0182E00B
:10075000828315828EE6838314820895FC0182E0F1
:100760008283158288E6838314820895FC0182E0E7
:10077000828315828AE6838314820895CF92DF9262
:10078000FF920F931F93DF93CF93CDB7DEB7C6547D
:10079000D0400FB6F894DEBF0FBECDBF8C01DC0198
:1007A00011962C9111973C9112964C91129727FF1C
:1007B0001BC039832A834B8316968C918C83132F0D
:1007C0001227142718271D83832F0E9456038A811E
:1007D0000E9456038B810E9456038C810E9456030F
:1007E000812F0E94560346C039832A834B83632F8F
:1007F00062276427FC018581A80194E0C92ED12CD1
:10080000CC0EDD1EA82FB0E09E012A0F3B1F2C5FEF
:100810003F4F06C0FA018581F60181936F01682779
:100820004F5F5F4FC216D306A9F7F8019381FE010F
:10083000EA0FFB1F9483F8018481FE01EA0FFB1F7E
:100840008583892786278683FF246E010894C11C2F
:10085000D11C06C0EC0DFD1D80810E945603F3944F
:10086000EF2DF0E0D80112968C9190E003968E1750
:100870009F0784F7CA5BDF4F0FB6F894DEBF0FBE49
:10088000CDBFCF91DF911F910F91FF90DF90CF905F
:1008900008951F93CF93DF931BE3C6E6D0E0FE01DC
:1008A0008191182780E0E037F807D1F78BE30E94A9
:1008B00056038AEB0E94560381E10E94560380E0B2
:1008C0000E94560381E10E94560381E80E9456036C
:1008D00089910E94560380E0C037D807C9F7812F5D
:1008E0000E945603DF91CF911F9108957F928F92BE
:1008F0009F92AF92BF92CF92DF92EF92FF920F93AF
:100900001F93DF93CF93CDB7DEB7C654D0400FB659
:10091000F894DEBF0FBECDBF8C010E941103782E6C
:100920000E941103882E0E941103982E7E010894C4
:10093000E11CF11C67015701A80EB11C05C00E9403
:100940001103D6018D936D01CA14DB04C1F70E9417
:100950001103682FF801708281829282982D972569
:10096000992504C0D7018D917D019827EC14FD04D1
:10097000C9F78981F80183838A8184838B81858388
:100980008C8186838281853019F48D8180872EC089
:10099000863060F18D81D80117968C9326E0E22E87
:1009A000F12CEC0EFD1EF80140E050E006C0D7012E
:1009B0008D917D0180874F5F5F4FD80117968C9195
:1009C0001797282F30E031964217530784F3129679
:1009D0008C911297E82FF0E02B5F3F4F2E173F07C7
:1009E0002CF4EC0FFD1F808118968C93961711F450
:1009F00081E001C08FEFCA5BDF4F0FB6F894DEBF16
:100A00000FBECDBFCF91DF911F910F91FF90EF905F
:100A1000DF90CF90BF90AF909F908F907F90089580
:100A2000CF93DF93EC0190E00BC0E92FF0E0DE0103
:100A3000AE0FBF1F19968C91E058FF4F80839F5FC8
:100A40008885981790F3DF91CF910895CF93DF9326
:100A5000EC016E5F6A8362506D8380E98B831C8238
:100A600090E00BC0E92FF0E0DE01AE0FBF1FE057B2
:100A7000FF4F808116968C939F5F8D81981790F31E
:100A8000DF91CF9108950F931F93CF93DF93EC01E4
:100A90008B0190E00BC0E92FF0E0DE01AE0FBF1F2D
:100AA00019968C91E058FF4F80839F5F8885981737
:100AB00090F380E890E060E970E040E750E02FE1DB
:100AC00030E00E94D106C80168E00E942605DF914F
:100AD000CF911F910F9108950F931F93CF93DF93A1
:100AE000EC018B0190E00BC0E92FF0E0DE01AE0FCE
:100AF000BF1F19968C91E058FF4F80839F5F8885B8
:100B0000981790F380E890E060E970E040E750E0EB
:100B10000E949006C80160E10E942605DF91CF91F6
:100B20001F910F9108950F931F93CF93DF93EC01C3
:100B30008B0190E00BC0E92FF0E0DE01AE0FBF1F8C
:100B400019968C91E058FF4F80839F5F8885981796
:100B500090F380E890E060E970E040E750E00E94A8
:100B60004F06C80160E10E942605DF91CF911F91D9
:100B70000F9108950F931F93CF93DF93EC018B0197
:100B800090E00BC0E92FF0E0DE01AE0FBF1F199619
:100B90008C91E058FF4F80839F5F8885981790F372
:100BA00080E890E060E970E040E750E00E942E06A7
:100BB000C80160E10E942605DF91CF911F910F913E
:100BC00008950F931F93CF93DF93EC018B0190E077
:100BD0000BC0E92FF0E0DE01AE0FBF1F19968C911C
:100BE000E058FF4F80839F5F8885981790F380E8D7
:100BF00090E060E970E040E750E00E940806C8011C
:100C000060E10E942605DF91CF911F910F91089519
:100C10000F931F93CF93DF938C0187B3806A87BBB9
:100C200088B3806A88BBEB0120E030E0FA01E20F74
:100C3000F31FD801A20FB31F80819C9189278F8752
:100C40002F5F3F4F21972031310581F788B38F7592
:100C500088BBDF91CF911F910F910895CF93DF93C0
:100C600027B3206A27BB28B3206A28BBEC0120E009
:100C700030E0DB01A20FB31FFA01E20FF31F808106
:100C80009F8589278C932F5F3F4F21972031310516
:100C900081F788B38F7588BBDF91CF9108952F922C
:100CA0003F924F925F926F927F928F929F92AF92FC
:100CB000BF92CF92DF92EF92FF920F931F93CF9349
:100CC000DF93EF93FF93B92FA82FD72FC62FF52FC0
:100CD000E42FBD9ABF9AC59AC79A00E11127C00FA9
:100CE000D11F20E10D91119101270A932A95D1F787
:100CF000C598C798FF91EF91DF91CF911F910F9108
:100D0000FF90EF90DF90CF90BF90AF909F908F902B
:100D10007F906F905F904F903F902F901124089597
:100D20002F923F924F925F926F927F928F929F92FB
:100D3000AF92BF92CF92DF92EF92FF920F931F93E9
:100D4000CF93DF93EF93FF93A82FB92FC62FD72F01
:100D5000E42FF52FBD9ABF9AC59AC79A00E11127D3
:100D6000A00FB11F20E10E911191012709932A953F
:100D7000D1F7C598C798FF91EF91DF91CF911F915F
:100D80000F91FF90EF90DF90CF90BF90AF909F902A
:100D90008F907F906F905F904F903F902F90112495
:100DA00008952F923F924F925F926F927F928F920F
:100DB0009F92AF92BF92CF92DF92EF92FF920F93EA
:100DC0001F93DF93CF93CDB7DEB76D970FB6F8942F
:100DD000DEBF0FBECDBF6C017C8F6B8FFA013A8FE7
:100DE000298F87B3806A87BB88B3806A88BB5081AC
:100DF0006181728113819481D60114960C911497AC
:100E00000927458115965C901597542636811696CC
:100E10003C9016973326278117962C902226B32FC5
:100E2000B295BB0FB07E822F869586958695B82B9E
:100E3000B983F92EF294FF0CB0EEFB22842F869535
:100E400086958695F82AFB82812F8295880F807E71
:100E5000969596959695892B8C83972F9295990FB9
:100E6000907E812F869586958695982B9D83A62FBB
:100E7000A295AA0FA07E872F869586958695A82B8A
:100E8000AE83862F869586958695B52FB295BB0F36
:100E9000B07EB82BBF839185F92EF294FF0CA0EEA3
:100EA000FA22852F869586958695F82AF88680857C
:100EB000A82FA295AA0FA07E969596959695A92BF8
:100EC000A9872295220F207E869586958695282BC8
:100ED000E22FE295EF70F0E0E85BFF4F44902F7057
:100EE000422A4295440F407E369536953695B42F6A
:100EF000B32BB058BA83F60180815827652E77242A
:100F0000A301485A5F4FFA014491D60111968C9182
:100F100011976827862E9924F401E85AFE4F5491C0
:100F200012968C9112977827A72EBB249501285AE8
:100F30003D4FF901249113968C911827C12EDD2481
:100F4000C601885A9C4FFC0184915073407C542BFD
:100F50002C70522B8370582B2B8D3C8DD9015D93B7
:100F6000B88FAF8BE02EFF24A701485A5F4FFA01DC
:100F70004491052D10E0F801E85AFE4F5491A32D3D
:100F8000B0E09D01285A3D4FF9012491622D70E097
:100F9000CB01885A9C4FFC0184915073407C542BA8
:100FA0002C70522B8370582BEB8DFC8D5183329615
:100FB000FE8BED8BA301485A5C4FFA014491F4017A
:100FC000E85AFF4F5491C501885A9E4FFC01849105
:100FD0009601285A3D4FF90124915073407C542BBF
:100FE0008C70582B2370522BEB8DFC8D52833396D3
:100FF000FC8BEB8BA701485A5C4FFA014491F80136
:10100000E85AFF4F5491CD01885A9E4FFC018491BC
:101010009B01285A3D4FF90124915073407C542B79
:101020008C70582B2370522BEB8DFC8D5383349690
:10103000FA8BE98BA301485A5D4FFA014491F40100
:10104000E85AFC4F5491C501885A9F4FFC01849186
:101050009601285A3E4FF90124915073407C542B3D
:101060008C70582B2370522BEB8DFC8D548335964E
:10107000F88BEF87A701485A5D4FFA014491F801B8
:10108000E85AFC4F5491CD01885A9F4FFC0184913E
:101090009B01285A3E4FF90124915073407C542BF8
:1010A0008C70582B2370522BEB8DFC8D558336960C
:1010B000FE87ED8728E531E0620E731EF30144914F
:1010C00028E532E0820E931EF401849128E533E096
:1010D000A20EB31EF501949128E530E0C20ED31E96
:1010E000F60124918073407C842B9C70892B2370A3
:1010F000822BEB8DFC8D86833796FC87EB8728E56A
:1011000031E0E20EF31EF7019491085A1D4FF801E9
:101110004491A85ABC4FFD013491685A7F4FFB019E
:1011200024914073907C492B3C70432B2370422BBD
:10113000AB8DBC8D17964C93B2E0BA8798C1E98904
:10114000FA896081FE816F27AF85B8897C91BD8166
:101150007B27ED85FE85F081FC80FF25FD8FAB852B
:10116000BC855C90BB815B26EB8DFC8D408144256A
:10117000642E7724A301485A5F4FFA014491AF8946
:10118000B88D9C91B9859B27892E9924F401E85A42
:10119000FE4F5491ED89FE892081F8852F27A22EDC
:1011A000BB249501285A3D4FF9012491AB89BC8994
:1011B0008C91BF818B27C82EDD24C601885A9C4F95
:1011C000FC0184915073407C542B2C70522B837003
:1011D000582BAB8DBC8D5C93E62EFF24A701485A9B
:1011E0005F4FFA014491072F10E0F801E85AFE4FD3
:1011F0005491FD8DAF2FB0E09D01285A3D4FF9016C
:101200002491652D70E0CB01885A9C4FFC0184919C
:101210005073407C542B2C70522B8370582BEF89C9
:10122000F88D5083A301485A5C4FFA014491F401B0
:10123000E85AFF4F5491C501885A9E4FFC01849192
:101240009601285A3D4FF90124915073407C542B4C
:101250008C70582B2370522BED89FE895083A70187
:10126000485A5C4FFA014491F801E85AFF4F5491F3
:10127000CD01885A9E4FFC0184919B01285A3D4F15
:10128000F90124915073407C542B8C70582B23709F
:10129000522BEB89FC895083A301485A5D4FFA0118
:1012A0004491F401E85AFC4F5491C501885A9F4F6C
:1012B000FC0184919601285A3E4FF9012491507304
:1012C000407C542B8C70582B2370522BE989FA895F
:1012D0005083A701485A5D4FFA014491F801E85A3A
:1012E000FC4F5491CD01885A9F4FFC0184919B0182
:1012F000285A3E4FF90124915073407C542B8C7036
:10130000582B2370522BEF85F889508328E531E064
:10131000620E731EF301449128E532E0820E931EA3
:10132000F401549128E533E0A20EB31EF501849137
:1013300028E530E0C20ED31EF60124915073407CA4
:10134000542B8C70582B2370522BED85FE855083C7
:1013500028E531E0E20EF31EF7014491085A1D4FD3
:10136000F8011491A85ABC4FFD018491685A7F4F2F
:10137000FB0124911073407C142B8C70182B23706C
:10138000122BAB85BC851C93220C331C220C331C06
:101390009D8192256C816295660F607E5B8156957A
:1013A000569556954C81469546954695392F3695D6
:1013B000369536952E812295220F207EBF81B295DB
:1013C000BB0FB07EEE81E695E695E695BE2BBC831D
:1013D000F885F295FF0FF07EFF80F694F694F69470
:1013E000FF29FD8379857295770F707E88858695B4
:1013F00086958695782B7E83A42DA295AA0FA07E34
:10140000B985B695B695B695AB2BAF83E981E295D4
:10141000EE0FE07E469446944694E429E887FA81EC
:10142000F295FF0FF07EF980F694F694F694FF297A
:10143000F9878B818295880F807E7A817695769563
:101440007695872BE82FE295EF70F0E0E85BFF4F91
:1014500044908F70482A8A858F5F8A87232B2B833D
:101460009295990F907E942B9A83652B69839A8528
:10147000292E3324A98DBA8DA215B3050CF05FCEA9
:101480005F97C9F5EB8DFC8D8081842580838181F8
:10149000F9858F27AB8DBC8D11968C931197129681
:1014A0008C91B8858B27EB8DFC8D82838381FF81A6
:1014B0008F27AB8DBC8D13968C93139714968C91BC
:1014C000BE818B27EB8DFC8D84838581FD818F27E9
:1014D000AB8DBC8D15968C93159716968C91BC810F
:1014E0008B27EB8DFC8D86838781FB818F27AB8DCE
:1014F000BC8D17968C9388B38F7588BB6D960FB68D
:10150000F894DEBF0FBECDBFCF91DF911F910F9139
:10151000FF90EF90DF90CF90BF90AF909F908F9013
:101520007F906F905F904F903F902F900895F89428
:02153000FFCFEB
:101532003BBA110011812A4649545F435655542A39
:00000001FF
